:020000041000EA
:1000000000B5324B212058609868022188439860DF
:10001000D860186158612E4B002199600221596106
:100020000121F02299502B49196001219960352056
:1000300000F044F80222904214D00621196600F024
:1000400034F8196E01211966002018661A6600F04E
:100050002CF8196E196E196E052000F02FF8012189
:100060000842F9D1002199601B49196000215960AB
:100070001A491B48016001219960EB211966A021F2
:10008000196600F012F800219960164914480160C1
:100090000121996001BC002800D000471248134993
:1000A000086003C880F30888084703B5996A0420EC
:1000B0000142FBD001200142F8D103BD02B5186610
:1000C0001866FFF7F2FF186E186E02BD00000240BE
:1000D000000000180000070000035F00212200005C
:1000E000F4000018222000A00001001008ED00E03C
:1000F00000000000000000000000000074B24E7A12
:1001000000200420F7010010C3010010C5010010F9
:10011000C1010010C1010010C1010010C101001097
:10012000C1010010C1010010C1010010C701001081
:10013000C1010010C1010010C9010010CB01001065
:10014000CD010010CD010010CD010010CD01001037
:10015000CD010010CD010010CD010010CD01001027
:10016000CD010010CD010010CD010010CD01001017
:10017000CD010010CD010010CD010010CD01001007
:10018000CD010010CD010010CD010010CD010010F7
:10019000CD010010CD010010CD010010CD010010E7
:1001A000CD010010CD010010CD010010CD010010D7
:1001B000CD010010CD010010CD010010CD010010C7
:1001C00000BE00BE00BE00BE00BE00BEEFF3058054
:1001D000103800BEF2EB88715C27021078270210FD
:1001E0003802001090A31AE71E481F49086006C88D
:1001F00081F3088810471D480068002801D019487D
:10020000F3E70DA40ECC002902D000F012F8F9E7B4
:100210001749184A002000E001C19142FCD116495B
:100220008847164988471649884700BEFDE701C937
:1002300001C29A42FBD3704778270210C000002009
:10024000100C0020C832021000000420000004201E
:10025000C83202100010042000100420000000002A
:10026000704700000000000008ED00E0000000D032
:10027000100C0020EC130020113A00104D03001068
:10028000093A0010F8B5C046044B10B5002B03D056
:100290000349044800E000BF10BDC0460000000054
:1002A000B41300202C310110F0B5C646012300B56F
:1002B000214C0622A5440293204B082101930223DE
:1002C00004AF0093804605331D480EF01BF904006F
:1002D00004F09AFC0500220029001A480CF0A4FD45
:1002E000431C23D00823FE1841460122300009F0A8
:1002F00027F8694632693000D31DDB08DB00CB1AD2
:100300009D4604AB98463B1D414609F00FFA30006C
:1003100009F024FE280004F009FD20000EF06CF91D
:1003200043465878197800F01BF80020BD46064B6C
:100330009D4480BCB846F0BD88EFFFFFA086010059
:1003400000000440303101106810000010B5024870
:10035000FFF7AAFF002010BD34310110000000009B
:1003600081F308880047C046094A83009A1810B5EF
:1003700014684022544080322240064CC000A446FB
:1003800063441A60044B9C466044416010BDC04603
:1003900004C0014004D0014000400140074B8000F0
:1003A000C3181B68C90092000A435A400C2313402B
:1003B000034A9446604403607047C04604C001404D
:1003C00004D00140064B8000C3181B68054A090190
:1003D00059409446302360440B4003607047C04648
:1003E00004C0014004D001400123D0228340120602
:1003F00093629361094A83009A1811684022514020
:1004000080320A400649C0008C4663441A60054B9E
:100410009C460523604443607047C04604C00140C9
:1004200004D00140004001400FB400B5084883B03B
:1004300003F0B2FC049B002B07D005A91800019122
:1004400003F090FA034803F0A7FC012003F0A2FA9E
:1004500038310110E832011070B5EFF3108C72B62C
:100460000D4D2B68002BFCD0BFF35F8F0724CB080A
:10047000C618C05C01230C40A3401C00044003428A
:1004800007D118433070BFF35F8F2C608CF3108856
:1004900070BD1000FFF7C8FF2C0100D0044A10788F
:1004A000431CDBB2172B00D9102313707047C046D2
:1004B000100400200021044B044ABFF35F8F02C3E5
:1004C0009342FAD17047C046000100D0800100D0AD
:1004D000054B064A1360064A136053609360D3606D
:1004E00013615361936170478080808000E400E075
:1004F00004E400E01F2318401E3B8340002905D080
:10050000C021044A490053501360704780220149BA
:100510008B50FAE700E100E070B50D00EFF31086B4
:1005200072B60F4A1368002BFCD0BFF35F8F0D4BE0
:1005300010309B6884001B590B4A934203D09D42A4
:1005400001D000F0D1FD074B9B681D51BFF35F8FB9
:10055000BFF35F8F0022024B1A6086F3108870BDD4
:10056000240100D000ED00E0CD010010024B9C46BC
:1005700061448900016070474000003470B5114C3F
:10058000114DAC420FD2FF262368002B0CD0FFF791
:1005900085FF01002000FFF7E9FFA680BFF35F8F12
:1005A0000834AC42F0D370BDFFF778FF01002000A3
:1005B000FFF7DCFF2671BFF35F8F0834AC42E3D353
:1005C000F1E7C046680B0020100C002010B50400B5
:1005D000FFF764FF01002000FFF7C8FFFF2323712E
:1005E000BFF35F8F10BDC0460A4B1968EFF3108050
:1005F00072B60A68002AFCD0BFF35F8F1B68BFF396
:100600005F8F00221A6080F3108840BF0020002115
:100610007047C046E4130020F0B5DE4657464E460C
:100620004546E0B587B0EFF305820323012513406B
:100630009D409900B34AB44B54581D60B34B884653
:10064000A946049329E0A3881BB2002B00DBA5E098
:10065000A379002B00D0E6E00823E05E002800DA52
:100660000FE1430062691B18DB00D3189E68DD6848
:10067000731C00D111E1A64B190041449A6A0B6921
:10068000B01A9B1A984200D20E61A14800F040FBBC
:100690008D4200DDF5E000D12BE14B469C484363E1
:1006A0000823E55E002DCEDB62696B0092465B1984
:1006B000DB009A4453469E68DF6800F029FB8F42B6
:1006C000C1DC00D10BE1002F00DAF0E052465346C6
:1006D00052691B699346049A934200D1E1E0524665
:1006E0000821605E528800045946104398470290E2
:1006F00003910299039A0B001000134300D1D6E036
:1007000013000A00B61A9F41002806DB804800F05B
:10071000FFFA029E039F36184F4153469E60DF60EA
:1007200000229A5E002A8EDB530099186069C90086
:10073000411801938B68C9689B46B94200DD82E786
:1007400002D1B34200D97EE708239C46A444059514
:1007500065462281A446019B2C0006E053009918AF
:10076000C90041188D68C968AB469B18DB00C318E7
:10077000B94206DC00D1C0E01C000023E25E002A82
:10078000ECDA230064469C4653461A806346059D76
:100790001D80A3881BB2002B00DA59E72269EFF312
:1007A000108172B61368002BFCD0BFF35F8F01235A
:1007B000A7885B42A3803FB22369BFF35F8F00220B
:1007C0001A6081F31088002F00DA41E72300083314
:1007D00022009A4666697B00DB19DB00F3189968F2
:1007E00050468C460824115FDD68002910DB019318
:1007F00006E0AB424DD00023E15E2000002906DB7D
:100800004C006418E4003419E368AB42F1DD019B4D
:10081000078000201F5E1980002FDCDA1400A37906
:10082000002B00D118E70023A37126000823E15E06
:1008300008364B1C25D00800A246656902E03E0040
:100840004B1C1AD04B005B18DB00EF180A008C46DB
:10085000E95E7B881BB2002BF1DA01235B42DC17D7
:10086000BB60FC60824205D0534631801B893B80CF
:1008700053461A8160464B1CE4D15446002800DBE5
:10088000EFE640BF07B0F0BCBB46B246A946A04663
:10089000F0BDA3686345AED9B9E76B1C00D0EAE6AA
:1008A000F3E65B4658461B69984700281BD1534620
:1008B0001B8822692381EFF3108372B61168002927
:1008C000FCD0BFF35F8F514662880A802269658041
:1008D000BFF35F8F0021116083F31088B3E6864277
:1008E00000D8F0E6AFE65B461A685B6802920393B5
:1008F000FFE6864200D8D0E6C3E7B34500D83BE721
:100900003FE7C046CC1300203C700540190600109C
:100910000040054070B52E4C2569002D04D00A21F9
:100920002C48FFF723FE70BD2B4E0321300000F052
:10093000E5F9E660FFF7B2FD284B03229C46D02381
:1009400022701B061B6801216370254B6044A36065
:100950000F23800020610220638063694942A180E7
:1009600019800231198647311D83585218315A5265
:1009700075325C399952183201319952183201316D
:100980009952183201319952083518329D5202316C
:100990001832995218320131995218320131995254
:1009A00018320131995218320131995218320131FD
:1009B00099520C4B0C49DC6001303562FFF7ACFDFD
:1009C00001210320FFF796FD084B1D60A7E7C046F5
:1009D00014040020E41300200040054040000034CF
:1009E000FFFF1000CC1300201906001038600540EE
:1009F00070B501000469EFF3108C72B6206800280E
:100A0000FCD0BFF35F8F02200D5E4C696800401977
:100A1000C00024180869002D36DB26884E80BFF3FD
:100A20005F8F002606608CF31088E360638804986B
:100A3000013320615B0405985B0CA26060611A1CA5
:100A4000002B1FD093B22804628018430A69EFF389
:100A5000108C72B61368002BFCD0BFF35F8F8B88AD
:100A600023808D800B69BFF35F8F00221A608CF3A7
:100A700010880B7801329A40CB6808498C46634451
:100A80001A6070BD0122DDE7BFF35F8F00230360B2
:100A90008CF3108801204042F3E7C0463C20000060
:100AA00010B543890A1493421ADD53009B1842691A
:100AB000DB00D3180469EFF3108C72B62268002AA9
:100AC000FCD0BFF35F8F5A88090494B2090C8A42A4
:100AD00008D00369BFF35F8F00221A608CF310887F
:100AE000002010BD8022120214435C8001230269A1
:100AF0008371BFF35F8F002111608CF3108804496C
:100B000002788C469340C268012062441360E8E793
:100B10003C200000F0B5C64600B582B0040000F0ED
:100B2000FFF8FA2206000F002000002300219200A7
:100B300001F004FA8019794104000D1E02DA012443
:100B40002E4D644206267642F71736196F41AF42A2
:100B500014D811D000F0E4F832003B00121A8B4197
:100B6000002B15DC002B46D02000290000F016F9E0
:100B700002B080BCB846F0BDA642EBD900260027E3
:100B800000F0CEF832003B00121A8B41002BE9DD59
:100B900000F0C6F832003B00121A8B41002B0ADB32
:100BA00000230193164B3200009316483B00FFF7D9
:100BB0001FFF0130D8D000233900B0469C46124AAE
:100BC0001248536A994204D8966AB045CCD99942E2
:100BD000CAD10668EFF3108772B63368002BFCD0D9
:100BE000BFF35F8F0368BFF35F8F66461E6087F3B6
:100BF000108820BFE5E7002AB6D0C9E7FFFFFF7FD6
:100C0000E90500101404002000400540E413002012
:100C1000F0B5CE46474680B504000D0083B0EFF333
:100C2000058399460F00002B42D1314EA046337800
:100C3000F06804339B00816A1B58601A5B1A984263
:100C400012D320BF2B4900204B6AAB4207D38A6ADC
:100C50005B1B591E8B4141468A424041184303B0F9
:100C6000C0BCB946B046F0BD00F05AF822002B00D7
:100C7000121A8B41002B28DB4B4601931E4B22009E
:100C8000009330002B00FFF7B3FE011E1DDD194B52
:100C90005A6AAA422AD39B6A9C4225D83000FFF7A1
:100CA000FFFE144A0020536ABB42D8D3926ACFE7B2
:100CB000104900204B6AAB42D1D38A6A5B1B591E94
:100CC0008B41A24240411843C9E70A4A0020536AB7
:100CD000BB42C4D300204146926A5B1B8A4240411A
:100CE0005A1E93411843BAE7AA42D7D120BFD5E78D
:100CF0001404002000400540E905001010B5024A28
:100D00000248FFF7A9FB10BD48310110681300200D
:100D10000300416A0A00986A596A8A42FAD1704708
:100D2000034B596A0A00986A596A9142FAD170478E
:100D30000040054070B504000D00174A536A1900C1
:100D4000966A536A8B42FAD13000190024184D413B
:100D5000AB4216D813D0104B2A005B6A9D4203D9D0
:100D60000D494B6A9342FCD3934207D10A4A02E0F1
:100D7000516A994202D1916AA142F9D370BDA6424B
:100D8000E9D9054B5B6A1C005A1CEFD001220124F3
:100D90006442E5175242E3E700400540064A536AC1
:100DA0009942FCD807D1044B02E05A6A914202D121
:100DB0009A6A9042F9D8704700400540F8B5DE467F
:100DC0004E4657464546E0B58B4605000A99180041
:100DD000160000F08FFA0A9B6C001F02324B641958
:100DE0009C46A4006444636881469F4200D96760C2
:100DF0002B1FDBB29846012B30D9C02380229B01E8
:100E0000E31812011A60294BAD0059599A4600297E
:100E10001BD17301E026226853401E4080234246C6
:100E20005B01E3181E60012A30D9802380229B01D8
:100E3000E31812011A6053464A4667605A51F0BCE3
:100E4000BB46B246A946A046F8BD586900F052FA22
:100E5000013043001B18033BFDD2DAE75B46012B50
:100E6000CBD1C02303229B01E3181A60023AA36886
:100E70001A42FCD07301E0262268AD0053401E40A8
:100E800080230A4A5B019246E3181E605A46216895
:100E9000514003220A401A6001225B469A40A3682F
:100EA0001A42FCD0C1E7C046008000406C1300200D
:100EB000F0B546464F46D646C0B51F00344B4400F9
:100EC0009C462418A4006444636888461600FF2BDF
:100ED00002D880235B006360031FDBB29A46012BBC
:100EE00030D9C02380229B01E31812011A60294BDC
:100EF00085005959994600291BD17301E0262268C3
:100F000053401E40802352465B01E3181E60012AB5
:100F100030D9802380229B01E31812011A608023BC
:100F20005B0063604B465F51E0BCBA46B146A846E1
:100F3000F0BD586900F0DEF9013043001B18033B97
:100F4000FDD2DAE74346012BCBD1C02303229B011C
:100F5000E3181A60023AA3681A42FCD07301E02633
:100F60002268850053401E4080230A4A5B01914657
:100F7000E3181E6042462168514003220A401A606D
:100F8000012342469340A2681342FCD0C1E7C04609
:100F9000008000406C130020014B8000C058704757
:100FA0006C130020F8B5040021481E0017000D0046
:100FB00000F0A0F90100380000F09CF9069B36040F
:100FC0001B031E432368002B20DB1A4B1A49E3182E
:100FD0005A1E93418022920194465B421B0B174A92
:100FE0001B0363441360164A13601F000A6897438B
:100FF000FBD1144B2560E2182123A0601360236805
:10100000002BFCDA0823E6601360F8BD3F2322685A
:101010001340AB42D9D1A3681B051B0D8342D4D129
:10102000EE22E368D2021340B342CED1EDE7C046D0
:10103000001BB7000040FDBF08C0004000E00040BA
:1010400000F00040043000008023024A9B000B4364
:10105000D362704700800540002310B50100988AD4
:101060001B8B984710BDC046162310B50100188889
:1010700002331B88984710BDF8B54746CE4680B569
:101080000F1E18D0142399460433040000250126AE
:1010900098464B461888434621681B88984701C4E8
:1010A000431E984101350640AF42F2D13000C0BC2A
:1010B000B946B046F8BD0126F8E7C046AA23064A5D
:1010C0001B0113602F230549D360054B196053683A
:1010D000002BFCDA7047C0460040024000B0FA0026
:1010E000006002407047C04610B50148FFF79CF908
:1010F0006C31011070B5074D074EB54209D200247E
:10110000013E761BB60808CD984723000134B34250
:10111000F9D170BDE830011024310110054B064AA9
:1011200006491A60064A074B1A6010000B6898437C
:10113000FBD1704700E00040BFCDFBFE08C000407F
:10114000FE7F3C0000F00040044BDB6C002B03D121
:101150008022034BD2021A607047C0460000115033
:101160004C201150044A054B1A60054A1368DB01F4
:101170008033FBD17047C046FFFFFF0100F0004005
:1011800008C000404022034B9A675A671A67DA6624
:101190007047C04600F0014010B5FFF78BF910BD55
:1011A00070B5044D044CA968C022200000F072FF05
:1011B000AC6070BD00ED00E000000020002310B521
:1011C000294C82B0A367FFF779FF0122274B1A60F1
:1011D000636C012BFCD10322254B1A60224A936BCE
:1011E000012BFCD1013300930121224A2248043310
:1011F000FFF7D8FE052301210093204A2048FFF77E
:10120000D1FE0022022104201E4BFFF751FE0022D6
:10121000012105201C4BFFF74BFE00220021072077
:101220001A4BFFF745FE002200210820174BFFF75D
:101230003FFE8023DB000093002200210920134B96
:10124000FFF7BCFD0022104B00210620FFF730FE07
:101250000420FFF7A1FE0E4900F04CF80100002029
:10126000FFF7F2FE02B010BD008000403CB000402D
:1012700030B00040002F685900800240008C864743
:1012800000C00240001BB70040597307006CDC022D
:1012900040420F0001480421014B18473004002050
:1012A00079100010124A936F9B0815D29066D16690
:1012B000002905D0FFE7FFE7FFE7516F106F704788
:1012C00004B580210906C2175140002800D0C84348
:1012D00011F0D2FE002104BDF0B5146E556E576FAB
:1012E000166FFFF7E3FF1466556657671667F0BD84
:1012F000000000D0114A936F9B0813D2106651660C
:10130000002905D0FFE7FFE7FFE7516F106F704737
:1013100004B5002801D00020C04311F0ADFE00212B
:1013200004BDC046F0B5146E556E576F166FFFF7CB
:10133000E5FF1466556657671667F0BD000000D0DC
:1013400094464A4A926F9208624601D228E0C0460B
:10135000F0B5464E346E756E776F366F00F020F83C
:101360009446424A14665566576716676246F0BD52
:1013700094463E4A926F9208624601D254E0C046BB
:10138000F0B53A4E346E756E776F366F00F04CF8EC
:101390009446364A14665566576716676246F0BD2E
:1013A000002B24DB11D000293EDA00B5C9434042AE
:1013B00000D1013100F038F8C943404200D1013179
:1013C000DB43524200D1013300BD002AEBD100289B
:1013D00001D1002905D00020C90FC90701D1C043A0
:1013E000410800B511F040FE0022002300BD00B509
:1013F00000290ADBDB43524200D1013300F014F82C
:10140000C943404200D1013100BDC943404200D12F
:101410000131DB43524200D1013300F005F8DB43D8
:10142000524200D1013300BD002923D1002B18D135
:10143000002A0CD0BC460D4F38667A660021002386
:10144000FFE7FFE7FFE77A6F386F674670470028CE
:1014500001D00748010000B511F006FE002200236C
:1014600000BD02000B00002000217047000000D0EA
:10147000FFFFFFFF002B00D0BFE0130C28D1002A94
:10148000E7D080B4114F39667A66FFE7FFE730B4E2
:10149000040C7B6F396F1B0423433B667A66FFE7BE
:1014A000FFE7FFE7C04684B27B6F3D6F1B04234319
:1014B0003B667A66FFE7FFE7C04600232C042D0C4D
:1014C0007A6F386F00196941B0BC7047000000D0D6
:1014D000F0B594460025140E01D112020835140F00
:1014E00001D112010435940F01D192000235D40FBD
:1014F00001D152000135D40B0134254F7C66254CB7
:101500003C660E0C93B2FFE7FFE7FFE73C6F6643D4
:10151000360C7703BE467343DF0B5B04C01AB94138
:10152000130C7343DB18C91ACE086643360CB64455
:1015300093B273431F0F1B01C01AB941130C7343BD
:101540001F0B1B05C01AB941860D8F023E4366432F
:10155000360C092D24DB520A7243801A7703460A9F
:101560006643360C16235B1BDE40DF40BF19644622
:101570006643821B7046043506330100D940A840FB
:10158000C01900D30131A24206D20023F0BD0000F1
:10159000000000D0FFFFFFFF121B0130F3D3F1E783
:1015A00009277F1BFE406446A2B27243801A00D214
:1015B0000139220C7243130C1204821A99410B0058
:1015C0007046043513370100F940A840801900D354
:1015D0000131002B02D1A2420AD2F0BD013000D36A
:1015E0000131121BFAD2013BF8D1A24200D2F0BD68
:1015F000013000D30131121BF7E7F0B51C0C00D00D
:1016000080E00CB400251C0A04D11B02160E3343E3
:10161000120208351C0B04D11B01160F33431201B3
:1016200004359C0B04D19B00960F33439200023586
:10163000DC0B02D192185B4101351C009718644104
:101640000134464F7C66464C3C660E0CFFE7FFE7D4
:10165000FFE7C0463C6F6643360C7703BE4697B241
:101660007743C01B00D20139C01B00D201399FB2A1
:101670007743C91BC91B170C77437E04FF0B801BE4
:10168000B941CE086643360C0C2D33DBB644120B41
:101690001F053A431B0B97B27743C01B00D2013999
:1016A0009FB27743C91B170C77433E043F0C801B46
:1016B000B941860D8F023E43664329277F1BFE40BA
:1016C0000C3D7746AF40BF1930BCA2B2ABB27243FB
:1016D0007343801A9941220C7243130C1204801A2E
:1016E000994102000B000137001BA941F9D2781E75
:1016F0000021F0BD0C277F1BFE4077467F0BAF40DB
:10170000FF19E0E700245D1C07D0144F7D663966A1
:10171000FFE7FFE7FFE7FFE73C6F95B29EB2654347
:101720006643401BB141150C1E0C654366433604ED
:101730002F0C3E432D04401BB141994204D20200BC
:101740000B0020000021F0BD01D19042F7D3801A98
:10175000994101349942F2D3F6E70000000000D02D
:10176000FFFFFFFF48404140484018B41B4B5B68F7
:10177000FC46019308BD04DF0F1A001018B4174B84
:101780001B68FC46019308BD00DF191A001094463F
:10179000134A926F920809D2624618B40F4BDB6865
:1017A000FC46019308BD0CDFD11C00100C4AF0B5BB
:1017B000146E556E576F166F6246FFF7EEFF084ABC
:1017C0001466556657671667F0BD18B4034B9B68DF
:1017D000FC46019308BD08DF751B0010200E002099
:1017E000000000D0FFB550404240504059404B40AF
:1017F000594000E0FFB5154F4C00640D03D0BC42CA
:1018000004D10C0314D80020090D09055C00640DF7
:1018100003D0BC4204D11C030AD800221B0D1B05B7
:1018200001264B4009D44B4003D58B4200D1824264
:10183000FFBD9942FCD19042FFBD0B43DB1803432F
:101840001343F5D0C9434918FFBD0000FF0700004E
:1018500000B5FFF7CFFF804100BDC04600B5FFF7E0
:10186000C9FF01D9002000BD012000BD00B5FFF770
:10187000B9FF01D9002000BD012000BD00B5FFF770
:10188000B1FF804100BD012040054A00121804D874
:101890005A00121801D8002070470120704700003C
:1018A0000021002805D17047C1174840401AFAD0DE
:1018B000C90713B5064B1B6898470CBC441CA240D3
:1018C0001005120B0349091B09051943114310BDEB
:1018D000E01300201F04000010B54C00620D8023AF
:1018E000D218DB00D21A5B057E2A10DD9E3A13DA8D
:1018F000CC170903490819435242D140640001340E
:101900001532202A05DAD0400843604310BD00207C
:1019100010BD0846604310BDC80FC018013810BD87
:1019200018B4044B5B6AFC46019308BD24DF811E9A
:1019300000100000200E0020132370B51D78012D2B
:1019400019D014DD1F48FFF78FFB06001E48FFF774
:101950008BFB1E4C80223100200000F09BFB022DEF
:101960002DD01B48FFF778FB1A4B186070BD1A4B3F
:10197000164CA364F5E7184B144C23606360A36016
:10198000E36023616361A361E36123626362A36235
:10199000E36223636363A363E36323646364A36415
:1019A000E36423656365A365E36523666366A366F5
:1019B000E36623676367A367E367A364D1E7064B26
:1019C000A364CEE75344000053460000200E0020DD
:1019D0004C330000E0130020DD19001007B560460D
:1019E00001880A0A0230DF2AFAD1C9B2820804D378
:1019F000028840880004104300E00068014A50500B
:101A0000039007BD200E00200FB403BC0CBCF0B542
:101A10000124E407634000E0F0B50C0DCF0F661E13
:101A20003605891B640503D3C943404200D3013105
:101A3000640D03D0661CF60A07D0E41B00207F006B
:101A4000791C89078912803C24031D0DDF0F6E1E4F
:101A500036059B1B6D0503D3DB43524200D3013394
:101A60006D0D03D06E1CF60A07D0ED1B00227F001F
:101A70007B1C9B079B12803D2D032F1B661B58D49C
:101A8000A446202E46DA20371400BC401D00BD407D
:101A9000F24033412A4380185941CB0F05D0C94346
:101AA000C043002264425041514162464D0D28D14D
:101AB0000D0D07D100281FD0241940414941013A9A
:101AC0000D0DF9D0640006D3013000D30131002C94
:101AD00001D140084000013A0BD4941CE40A04D11F
:101AE00012051144DB071944F0BDD907204B1943F7
:101AF00000E0D9070020F0BD0029DDD1002CDBD1AA
:101B0000F0BD0132C6074008CD0728434908002E22
:101B1000E1D0D9E73C2E29DA203E40371400BC4002
:101B200000D00124F24014431A00BB401C43D317D9
:101B3000ACE7AC46202F08DA20360400B4400D0094
:101B4000B540F84039412843A5E73C2F0CDA203F47
:101B500040360400B44000D00124F840044308009B
:101B6000B1400C43C117EAE710001900002494E7C4
:101B70000000F07FF0B50C0D661E3605891BE60AE5
:101B80006405640D02D0651CED0A04D0002001211B
:101B90000905803C2403A4461C0D671E3F05DB1B82
:101BA000E70A6405640D02D0651CED0A04D000222A
:101BB00001231B05803C24037740644497B484B21E
:101BC00096B27443070C7E43150C6F4380B2684392
:101BD000361802D3012000043F183004350C0019D8
:101BE0007D41844688B29AB250430C0C62431F0C6C
:101BF0007C438EB27E43921902D301263604A41987
:101C00001604170C3618674101BC81B29AB25143D1
:101C1000040C62431B0C5C4380B25843121802D37D
:101C20000120000424181004130C401863412D18DF
:101C30005E410020474106BC88B293B258430C0C69
:101C40006343120C544389B251435B1802D3012100
:101C50000904641819041A0C091862416D185641D8
:101C60000020474118BCF902720D1143F0026A0DC1
:101C70001043ED020A0D03D16D1940414941013B6A
:101C8000124E9B1B7600B3420ED26D0007D301307B
:101C9000002671416646354301D1400840001B05CE
:101CA000C918E4072144F0BD0BDA013306D1013035
:101CB00004D101314F0D01D04908F2E7E1070020BE
:101CC000F0BD013631050020EBE70000FF03000006
:101CD000F0B51C0D671E3F05DB1BE70A6405640DAC
:101CE00002D0661CF60A04D0002201231B05803CAA
:101CF0002403D0252D060026F6432E661E096E66A7
:101D0000CE0FF619B44649004F0D02D07E1CF60ADC
:101D100003D000200021403F3F033E1BB600B444E7
:101D2000013F7F05C91B49082E6F013676089C02CA
:101D3000950D25437543ED137543AD1301356D10B6
:101D4000F603761B0CB4CC02450D2C43A2B2B3B201
:101D50005A43270C7B43350C6F43A4B26C431B19C9
:101D600002D3012424043F191C041D0CA4187D4136
:101D700024196D41009A91B2ACB26143170C7C43B7
:101D80002B0C5F4392B25A43A41802D301221204CF
:101D9000BF182204230C52187B41019C6C431B1971
:101DA000520ED9010A434401A01A81B2B2B2514382
:101DB00003145A43360C734387B27743D617D219AC
:101DC00000277E4136049B191704160C7F185E41CC
:101DD0007316ED18F301002680337541A90F06D163
:101DE0006400690AE8055B0A184309D22FE004225F
:101DF000944480337541A90AA8059B0A184326D349
:101E0000404149412404009A019B0D005543641B45
:101E10004343E41A95B286B27543170C7E43030C14
:101E20005F4392B25A43B61802D301221204BF187C
:101E30003204330C52197B4152429C41002C02D493
:101E40000022013051414008CA071043490802B03E
:101E50006246D7079210084BD218084B9A4203D219
:101E600012058918C919F0BD0020002A01DC3900CB
:101E7000F0BD01331905F5E7FD030000FE07000082
:101E8000002200B5203200F004F8080000BD000078
:101E900000220B150AD410B5944600F031F8141442
:101EA000013400DA0021CB17144C20470020002118
:101EB00070476244343A0CD40C2A07DA040091408B
:101EC000904052422032D440214310BDD843D943E0
:101ED00010BD203207D40C469440524220321141AA
:101EE000D040204310BD0800C917203203D452420D
:101EF0002032104110BD1800190010BDB31E001093
:101F00000A0DCC0F531E1B05C91A520503D3C94332
:101F1000404200D30131520D03D0531CDB0A07D0DD
:101F2000121B00206400611C89078912803A120389
:101F3000014BD21A70470000FF0300005143434396
:101F4000C9188C46110C83B24B4310B4040C614386
:101F500092B280B2504362431C041B0C001910BCA7
:101F600059411304120CC0185141614470470000DC
:101F7000132310B512481C78FFF776F80100012CE6
:101F80000AD003DD80220F4800F084F80E48FFF7E6
:101F900063F80E4B186010BD0A4C5422200000F06C
:101FA00079F80B4B6365A365E36523666366A366F7
:101FB000E36623676367A367E3672362E361E5E79B
:101FC00053460000200F00204C330000E013002097
:101FD000D51F001007B5604601880A0A0230DF2AC3
:101FE000FAD1C9B2820804D30288408800041043A1
:101FF00000E00068014A5050039007BD200F002008
:1020000010B504000CF06AFB002804D0034B04193F
:102010009C4200D810BD0248FEF706FA00000420DA
:102020007831011070B505000C000CF0F7FA6C4324
:10203000002804D0034B04199C4200D870BD02480C
:10204000FEF7F2F9000004207831011010B50C0001
:102050000CF050FE002804D0034B04199C4200D819
:1020600010BD0248FEF7E0F90000042078310110AD
:1020700010B50CF03DFB10BD01480421014B184781
:102080004004002079100010014B1B681847000025
:1020900040040020014B5B6818470000400400200A
:1020A0007047C046F8B55746DE464E464546E0B551
:1020B00099460A9B07009A460D9B884693460B9CBF
:1020C0009B073BD10C9B9C423DD21E1B0B941500E1
:1020D0000C005E442A004B46013521002020B84701
:1020E000B542F7D1A0460B9C002C20D045463619AE
:1020F0005346321B013C185D29004B46B847002C63
:10210000F6D12B00350098460D9B9B070FD55B46FB
:10211000EC1A0C9BA3420AD9464698462A004B4625
:10212000310020200134B84701354445F6D328005A
:10213000F0BCBB46B246A946A046F8BD1600150045
:10214000002CD3D1E0E716001500002CCED1EEE72D
:10215000F0B54546DE4657464E46E0B585B09C464E
:1021600010AB1B78149F934698460F9C129E139DAC
:10217000BB074CD4002D42D1B44248D201233B408E
:1021800099460E9B013B9A46302304E052460134A7
:102190001355A64201D9202CF8D14B46002B00D173
:1021A00083E00E9B013B99463023A54205D82EE0E3
:1021B0004A4601341355AC4229D0202CF8D1FB06F5
:1021C0000CD57B0554D4A64263D0A54261D0119BA7
:1021D000102B50D0022B57D0202C32D1202301932A
:1021E0000E9B5A460093039763460295FFF75AFFEA
:1021F00005B0F0BCBB46B246A946A046F0BD0123DF
:102200003B40994601233B422AD1B442B9D3FB0655
:102210001CD57B05DBD4002CD5D1119B102B5BD0BA
:10222000119B022B6BD0302301240E9A137043466E
:10223000002B10D17B073ED52B260E9A631C16551A
:10224000CDE72300013430260E9AD654202CC5D079
:102250004346002BEED02D260E9A631C1655BEE782
:102260004346002B2FD0013DB44200D289E798E7C6
:10227000119B102BB2D1BB0637D5202CAED05823E2
:102280000E9A13550134A7E7202CA7D02300013460
:1022900007E0631E012CC0D0119A102A31D0022A07
:1022A000D1D162260E9AD65496E7FB06CED57B0591
:1022B00000D488E78BE723003E0790D520260E9AAE
:1022C000013316558BE70C233B405A1E9341ED1A00
:1022D000B44200D255E764E7BB060ED478230E9AC9
:1022E0000224137030235370A1E7202C00D175E72E
:1022F00078230E9A135501346EE75823EFE76033C5
:10230000EDE70E9AA61E91464E44BA0602D5582213
:10231000327098E77822327095E7C04610B50028F1
:1023200000D110BD01F0EEFCFBE7C0460B0010B57C
:10233000002802D049681B68984710BDF0B5574681
:10234000DE464E464546E0B595B083460F009246C0
:1023500098461E9A1F9B10001900209EFFF793FAC3
:10236000002800D0EAE11E981F990122C54B524275
:10237000FFF76EFA002800D014E11E981F99012281
:10238000C14B5242FFF77AFA002800D0E9E01E98CC
:102390001F990022BD4BFFF771FA002800D0C8E05A
:1023A0001E981F990022BA4BFFF752FA002800D05E
:1023B000BFE01E981F9900220023FFF749FA00286A
:1023C00000D0E4E000230B93229B5B0500D406269B
:1023D0000024302307E0172106AA013452181355B0
:1023E000013E202C01D0092EF5D81E981F99FFF729
:1023F00073FAA84BF2009B181A685B6805000892F4
:102400000993FFF751FA02000B001E981F99FFF77E
:10241000ACF9089A099BFFF7D8F906900791FFF7E6
:102420007FFA8146FFF73CFA02000B0006980799F5
:10243000FFF79BF90022984B06900791FFF71EFAD1
:10244000002800D10DE101239C46E1444846FFF7F6
:1024500027FA02000B0008980999FFF7FFF90028F6
:1024600002D0002399460135002E00D1D9E006950F
:102470004D46B94614E006AA944617230A21634440
:10248000280001341F19FEF735FF3031397028005C
:102490000A21013EFEF72EFF092D00D817E10500A5
:1024A000202CE8D14F46069D20240CAE06AA172307
:1024B0009446634499465B46B34606930FE04B4609
:1024C00028000A210134E618FEF7ECFE303128001E
:1024D00031700A21FEF7E6FE051E00D1E4E0202C53
:1024E000EDD1069B5E469B460323229A1340012BA7
:1024F00018D1219B002B15D00B9B002B00D1FDE0A8
:10250000219B013B2193202B0CD93023219A07E0FA
:10251000172006A9013409180B55944200D3CCE0CA
:10252000202CF5D1229B01940393219B00960293CA
:1025300022E0229B52460493219B39000393584684
:102540001E9B1F9C029600930194434600F04AF99B
:102550000400200015B0F0BCBB46B246A946A04618
:10256000F0BD229B5B070FD403224C4B22990192B2
:1025700003912199009302914346524639005846EF
:10258000FFF790FD0400E4E70422454BEEE71E9AB6
:102590001F9B00200021FFF7E8F801231E901F91E8
:1025A0000B9311E7229B54469B0711D1219B042BCF
:1025B0000ED9219B55469C465E46043C64442A0045
:1025C0004346013539002020B047A542F7D1B34634
:1025D000344D26002B1F99465B46A3461C00320053
:1025E000E87843463900013DA04701364D45F6D114
:1025F00023005C469B46229B04349B07A9D5534687
:10260000219AE31A9A42A4D95E4615002200434655
:1026100039002020B04753460134E31A9D42F5D8D3
:1026200097E72800FFF740F902000B001E981F995A
:10263000FFF79BF80022184B06900791FFF708F967
:102640000CAE002800D031E7069807990022124B03
:10265000FFF714F9002800D028E7012301359D4336
:1026600024E70022069807990B4BFFF7F1F80028A2
:1026700000D0F9E64B46002B5CD101239C46E14497
:10268000F2E6C046FFFFEFFFFFFFEF7F65CDCD41D4
:1026900065CDCDC1603501100000E03FC4310110AF
:1026A000BC310110CC310110069B5E469B460323D2
:1026B000229A1340012B00D181E0202C00D131E778
:1026C0000B9B002B27D02D23335501342AE74F468F
:1026D000069D202C00D1E7E63022331907E01720B1
:1026E00006A9013409180A55202C00D1DCE6A342C2
:1026F000F5D12E220CAE0134F254D7E60C23229AE7
:10270000134257D0219B013B2193A34200D9FCE601
:10271000202C00D106E7229B5B0703D52B233355E2
:102720000134FFE6229B1B0700D4FBE62023335530
:102730000134F7E6DB0700D496E69EE7229B554678
:102740009B0711D1219B032B0ED9219B54469C46FC
:102750005E46033D65442200434601343900202093
:10276000B047AC42F7D1B346B9465F461C4EEC1CAD
:102770002A00B078434649460135B847013EAC428D
:10278000F6D1229BBB464F469B0700D4E1E6534659
:10279000219AE31A9A4200D8DBE65E461500220031
:1027A000434639002020B04753460134E31AAB4278
:1027B000F5D3CEE6219BA34200D9A6E6B2E6219B43
:1027C000002B00D179E70B9B002B97D0219B013B7D
:1027D00021939C4200D298E6202C00D073E7A1E61A
:1027E000C8310110F0B5DE4657464E464546E0B5C5
:1027F00099B081468B4692469846229A239B1000B8
:102800001900FFF740F8002800D0CAE02298239969
:102810000122824B5242FFF731F8002800D0C0E07D
:102820002298239901227E4B5242FFF711F800288B
:1028300000D0B6E02298239900220023FFF708F881
:10284000002800D0C9E1229B239C08930994089892
:1028500009998023269ADB001A400D928022269C3B
:102860001201144022000B94269C07000E001C420B
:1028700000D0ADE00B00034300D0D5E0002A00D02B
:102880000AE2220006332493022313400C9302230E
:10289000134200D002E2259B042B00D20FE2043B3E
:1028A0000B93002304250A930022229823990023E6
:1028B000FEF7CEFF002800D003E25A4B269A1340C1
:1028C00004930B9B0393249B0293089B099C009306
:1028D00001945946434652464846FFF72FFD0200F1
:1028E0002020269B1F27034059424B415B42184042
:1028F000531C0893594643464530C8470A9AD31794
:10290000D4185C40D30F0A936B1E0B9308AB9C4604
:102910000025674401E0202D0FD020000A21FEF79A
:10292000E9FC01357E193031317020000A21FEF7B3
:10293000E1FC26000400092EEDD8052306930B9B2D
:1029400059460593002304930A3303930A9B484690
:10295000029310AB0093089A43460195FFF7F8FBEA
:102960000C9B002B2DD05346C41A259BA34228D97B
:102970004D465F4681461E00534639001A192020F5
:1029800043460134A847A642F6D8534648462599FF
:10299000C21A01320023914200D386E10130181897
:1029A0000FE0269B0493259B0393249B0293229B79
:1029B000239C009301944346524659464846FFF7EC
:1029C000BDFC19B0F0BCBB46B246A946A046F0BD5E
:1029D00001432BD10B9B2200002B00D154E7002395
:1029E0000A93249B0A9A0024934200DD85E12298F1
:1029F000239900220023FEF72BFF002800D035E1A9
:102A0000269B084A02941A408023DB001343049358
:102A1000259B0393089B099CCBE7C046FFFFEF7FF4
:102A2000FFFFEFFFFFF7FFFF06232493B44B700077
:102A30009C46400D6044FEF737FFB24AB24BFEF7AA
:102A4000C4FEB24AB24BFEF799FE3603B14B360BC9
:102A5000334304000D00380019000022AE4BFEF78E
:102A600084FEAE4AAE4BFEF7B0FE02000B00200023
:102A70002900FEF783FEFEF72FFF0A90FEF714FFF2
:102A8000A84AA94B04000D00FEF79FFE0022A74BA9
:102A9000FEF774FEFEF720FFA54A0600A54B2000B6
:102AA0002900FEF792FE040030000D000C96FEF7A0
:102AB000FBFEA14AA14BFEF788FE02000B0020009E
:102AC0002900FEF752FE02000B0006000F00FEF781
:102AD0007CFE320004000D003B0030003900FEF7A0
:102AE0004DFE00220E900F91954B20002900FEF71D
:102AF0004EFE0022934BFEF741FE02000B00200029
:102B00002900FEF744FE00228F4BFEF737FE02003D
:102B10000B0020002900FEF73AFE0D008021040082
:102B200032003B000020C905FEF71FFE02000B002B
:102B300020002900FEF722FE02000B000E980F99DC
:102B4000FEF725FE0022734BFEF718FE7F4B0C9C10
:102B50009C46644400222305FEF737FE06000F0062
:102B600002000B0008980999FEF772FE00280AD0AF
:102B70000A9B3000013B39000A930022714BFEF79B
:102B800006FE06000F000A9A330063323900C62A97
:102B900012D802222698042510400B9A0C90002A85
:102BA00025D1259B042B05D9002800D0A1E0259B29
:102BB000043B0B93042541E00222269810400B9A17
:102BC0000C90002A12D1259B052B76D9002872D1B2
:102BD000259B0525053B0B9334E080221206944685
:102BE000229B0893239B6344099330E605250B43FE
:102BF00000D1F6E608980999554A564BFEF736FE7D
:102C0000002808D0089809990022534BFEF720FEAF
:102C1000002800D0E5E6249B002B1CD00D9B002B48
:102C200019D0249B013B2493259BAB4204D90C9BD8
:102C3000002B5AD002230C9300230B930A9B002BEA
:102C400000D131E60898099932003B00FEF79FFD5C
:102C50000890099128E6259BAB42EDD90C9B002BEF
:102C600043D000230B9302330C93E7E78020269B8D
:102C70003A4A00061A40802384460294089C099D23
:102C80002900DB0013430493259B61442200039336
:102C90000B00009201938EE60524A8E600230B9317
:102CA0000A93023304250C93FEE553468C46013B00
:102CB00063441B1A72E602230C930525C2E7042322
:102CC000EDE58020089E099F000639008446269A7B
:102CD000224B6144134004930B9B32000393249BCB
:102CE00002930B0000920193F3E5259B5B1B0B9372
:102CF000A4E7022304250C93A0E79C1A013C76E686
:102D000001FCFFFFFB799F501344D33FB3C8608B96
:102D1000288AC63F0000F03F0000F83F61436F6320
:102D2000A787D23F71A379094F930A400000E03F83
:102D30001655B5BBB16B0240EF39FAFE422EE63FA5
:102D400000002C400000244000001840FF03000059
:102D50002D431CEBE2361A3F80842E41FFF7FFFF24
:102D6000F0B5DE4657464E464546E0B5A5B01E00D6
:102D70002E9B92460C93CD4ACD4B80468B461A60D3
:102D8000002900D1EAE1002330789946002800D1DB
:102D9000ECE1C84B4C460B93C74B454657460E9348
:102DA0000AE0631C984622003B005946A847444667
:102DB0003078002800D187E001362528F1D108239A
:102DC0009A46043B9946023B9846013B00229C46AA
:102DD0000D943078711C0300203BDBB2102B03D81C
:102DE0000B9C9B00E3589F460300303B89460D9C9B
:102DF000092B3AD9002398462A2800D1C1E00023A4
:102E00009A462E284BD00300683BDBB2122B1ED80B
:102E10000E999B00CB589F4663460E001A43D8E795
:102E200043460E001A43D4E74B460E001A43D0E740
:102E300010230E001A43CCE753460E001A43C8E78E
:102E400080235B001A43FF3B9C467078E1444E466A
:102E500067284FD82428A4D90300253BDBB2422B96
:102E60009FD896499B00CB589F46002394461E004E
:102E700000E00131B3009B195B001E180878303E5A
:102E80000300303B092BF4D90123624689469C4656
:102E90000023B0469A460E00E1442E28B3D13021DB
:102EA000802049428C46C000024370784B468444DF
:102EB0006146092900D86CE12A2800D17AE1012372
:102EC0009C464E46E1449EE7A146A846BA46CA45FE
:102ED00003D801235B425344994653464A46594618
:102EE0000020C047200025B0F0BCBB46B246A94632
:102EF000A046F0BD0300693BDBB20D930F2B00D958
:102F00004FE7012199408C466D49894661464B4601
:102F100019400F91634649460B4200D028E10D9BB2
:102F20000A2B3AD0072B00D03BE70C9B190008C9AD
:102F30008846002B00D14BE121200243914614A981
:102F40008C461F220F2162448C4651460D950C91F0
:102F5000A24615000F9902E020290CD01300644608
:102F60001C4020003730092C00D807380131685444
:102F70001A090F2BF0D80C9B54460D9D9A460F91C1
:102F800033E10C9B02CB8846002947DB0C930123DD
:102F90009C4670784E46E14431E70C9B02CB14937B
:102FA0005346002B00D138E19C4608780B000C906A
:102FB0008C44002801D100F098FC89466146944673
:102FC00003E05A780133002A01D08B42F9D14946F7
:102FD00062465B1A0C900F93530500D520E1022343
:102FE000180010400D90134200D1CBE30D930B1B42
:102FF000B1469A465E460C9822003B003100A84735
:1030000053460134185D0028F6D1B3464E460D9B59
:10301000002B00D0C7E1149B0C93C9E60C9301234D
:103020009C46283849420243884670784E46E1441F
:10303000E5E670786C2800D17FE180235B001A43BD
:10304000FF3B9C46E14402E780239B001A43012397
:103050009C467078E144FAE67078682800D173E104
:1030600080231A437F3B9C46E144F0E6672800D169
:1030700003E1472800D15AE1452800D15AE10492E2
:10308000072142460C9B0392073352468B4319009B
:1030900002920CC92800009201930C9122003B007F
:1030A0005946FFF79FFB040082E6C046612D0010E1
:1030B000AC130020C4330110083401105434011043
:1030C00041900000462800D1DBE0049207214246EF
:1030D0000C9B0392073352468B43190002920CC992
:1030E0002800009201930C9122003B005946FFF703
:1030F00025F904005CE6631C984622003B00594613
:103100002520A847444653E60C9B04330D93631CCB
:103110009946920700D422E10C9B22001878594668
:103120003B00A84743464444012B00D885E23300C6
:10313000B8462E005F4625004C469946220043467D
:10314000013439002020B047AC42F7D12C00BB46F7
:10315000350047464E460D9B0C9329E6DB4B3078F5
:10316000984600239946002800D012E60024AEE6D7
:103170006F2800D188E000D80BE31023782800D115
:10318000CFE09A430A239C4600230F930A330D9302
:1031900080E05646B1008919490001330E181878AD
:1031A000303E010030390929F4D9B2461E000133FE
:1031B000994628E60C9B023602CB8A46C943504604
:1031C000C917084082460C933078731C99461AE65A
:1031D00010231000984311331843814680201300B8
:1031E000C0000340024200D1A9E64B4606930823E3
:1031F00005935346049310230393002302930F9BDC
:10320000220001931CAB009359463B002800FEF7B7
:103210009FFF434604000C93CAE501235B42C3E6CB
:103220000F9B534501D953460F93022318001040BA
:103230000D90134200D1B7E10D93D1460B1B9A4676
:103240003300A1442E0022004D460C98B9465F463B
:103250009B4608E04B463900541CB0475346185D66
:10326000002877D022009542F4D15B46BB464F46FA
:10327000A94635004C461E00C9E680231B011A43AF
:10328000FDE620231A4320E708239C4600230F93E2
:1032900008330D9380231100DB0019401A4200D13E
:1032A00016E10D239A431000802302009B001A4070
:1032B0001492184200D0C2E1802302005B001A4041
:1032C00091460C9A04320F92184200D0B7E243069E
:1032D00000D59FE1030600D419E30C9B1B880993DA
:1032E000002B00D0FCE110339843002900D1F7E116
:1032F0000023994643460593534604930D9B06903D
:1033000003930023D2E0582808D0622867D1022313
:103310009C4600230F9302330D93BBE720231A43EF
:10332000103B9C4600230F9310330D93B2E780238C
:103330001B011A4320231A43A1E6C0239B001A4312
:10334000F31C9946B07882E5C0231A43F31C9946D2
:10335000B0787CE535005E46BB464F4657E64346AF
:10336000012B00D863E1631E43449A463300B946FB
:103370002E005F4655469B46A24622004B4601342E
:1033800039002020B047AC42F7D135005E46BB463D
:103390004F46A14654460C9B4A46187859463B0076
:1033A0004444A847D7E6A1460F9B984500D832E68B
:1033B0004444E41A3300B8462E005F4625004C46CC
:1033C000994622004346013439002020B047AC42E0
:1033D000F7D12C00BB46350047464E461BE68023FE
:1033E0001000DB0018401A4200D10FE11121180033
:1033F0008A430D920D9A802311009B0019408C4640
:103400001A4269D1802311005B00194089460C994A
:1034100004310F911A4200D0CAE113005B0600D5B7
:10342000F0E013001B0600D459E20C9B00229B5EC7
:10343000D9175A184A4092B2D90F0C91002B00D1DB
:10344000F9E1100014AA944642461F2314925246F2
:103450006344A84616944D460400B946B2461F0080
:10346000159201E0202D0FD020000A21FDF742FF28
:1034700001357E193031317020000A21FDF73AFF05
:1034800026000400092EEDD8149B4F46A946454658
:103490009846159B56469A46169C0D9B06934346A6
:1034A0000593534604930A2303930C9B02934B46C4
:1034B00001931CAB2200009359463B002800FEF705
:1034C00047FE0F9B04000C9372E4C046A12000103D
:1034D0000C239A431000E7E607220C9B0733934323
:1034E000013294469C4462460C920CCBD90F0F914A
:1034F0001100194300D191E0D91713911291514055
:10350000109113995940119110981199129A139B87
:10351000801A99411090119114AA002394464246B2
:103520009946149252461F336344A846B2461694F5
:103530004E46109C119DB94615921F0001E0202EA9
:1035400010D0200029000A220023FDF711FF0136C8
:1035500030322B00BA550D0022000400002BEED1B2
:10356000092AECD8149B1094119545469846159B52
:103570004F46B14656469A46169C0D9B06934346C7
:103580000593534604930A2303930F9B02934B46E0
:1035900001931CAB2200009359463B002800FEF724
:1035A000D7FD0400FFF704FC0F9B984500D8C1E14C
:1035B0008023DB000D9343460F9A1B199B1A9946F3
:1035C00033002E004D46B9465F469B460C912200C3
:1035D0004B46013439002020B047AC42F7D1434676
:1035E0000C9901330F930B7835000C935E46BB4664
:1035F0004F46002B00D10EE50D9B002B00D1F6E4C9
:10360000002319E60C9B1B781A0015E710239A4338
:103610000D92EFE60C9B1B78099361E60023994617
:103620000028AAD1002200231092119374E70C9B6A
:103630002200187859463B00A8474C468BE50C9A67
:10364000FA3BFF3B07329A430133994691444B467C
:103650000C931368526815921A4306D110329043A6
:1036600000220992002900D081E06122810600D564
:103670004122D2B20A9214AA91460A9A00210A3A29
:10368000149242461792524618925A460991B346EE
:103690001F311E000F9B4944BA4619941A95002405
:1036A000674698468946159D16901B920AE030326F
:1036B000D2B24B4601341A55A8454AD0202C4AD0E4
:1036C00006000D003A00002330002900FDF750FEEF
:1036D000D2B2092AEBD9149B9C466244D2B2E8E7E5
:1036E0006123820600D54123DBB20A3B0C9343469B
:1036F00014A91F228C46159353466244A046B24635
:103700004C461797A9461700099D0D9E14901693D5
:1037100008E03033DBB201343B55B5420ED3202CE8
:103720000CD0050031002800FDF7E4FDCBB20929DB
:10373000EFD90C9A94466344DBB2ECE7159B4D46F7
:10374000A14644469846169B564614989A46179F9B
:10375000D0E5B742B2D9179B57469846189B5E46AC
:103760009A461B9B09949B461698199C1A9D4346A2
:103770000593534604930D9B0690039300230293F5
:10378000099B05E70F9B984500D914E701330F9378
:103790002DE41023110099430D91692800D0BAE05F
:1037A00080231000DB0018401A4200D122E61DE6FB
:1037B0000C9B1B68DA0F1100002B00D18CE0DA178C
:1037C0009818504014AA914642461F23149252461C
:1037D0004B44A046A946169704006546B2461F0012
:1037E0000C91159201E0202D0FD020000A21FDF749
:1037F00081FD01357E193031317020000A21FDF73D
:1038000079FD26000400092EEDD8149B4446984605
:103810000C9BAC461900159B56464D469A46169F82
:103820000D9B0291069343460593534604930A2346
:10383000039363463CE6002800D02EE602E60C9B8C
:103840001B689946002B03D110339843002938D1C7
:103850006123820600D54123DBB20A3B0C93434629
:103860001693534614A91F228C4617932B006244CB
:10387000A0464D46B246189799461700149C0D9ED7
:10388000159008E03033DBB201343B55B5420ED31E
:10389000202C0CD0050031002800FDF72BFDCBB209
:1038A0000929EFD90C9A94466344DBB2ECE7169BE6
:1038B000149444469846179B56464D469A4615988A
:1038C000189F43460593534604930D9B069003931C
:1038D00000230293149BEBE50028A1D172E70C9B17
:1038E0001B68D9175A184A40A6E580231000DB0050
:1038F00018409C460F901A420FD00220030013403C
:103900000F93104219D00023A1460F934CE50C9B56
:103910001B680993E4E40A0034E402231800104011
:103920000D90134200D03EE54346002B00D042E606
:10393000FFF771FB01330F937FE463460D93F3E7C9
:1039400010B50C0084B00394012402A902900093E6
:10395000034813006242FFF703FA04B010BDC046EB
:103960002D23001010B5094A0300146884B0002C00
:1039700008D0012200910648524203A9A047012025
:1039800004B010BD00F008FA0020F9E7AC130020E5
:103990001D23001000BEFDE7094A0300106800283F
:1039A00005D00849C3188B4207D8136070470648F2
:1039B0000449C31810608B42F7D901204042F5E753
:1039C000A413002000000420EC13002010B5041EF6
:1039D0000DD0FDF7A5F9074B1A685B68801A99416D
:1039E0000023054AFDF7ACFC20606160A260002066
:1039F00010BDC046A00D002040420F00030002226F
:103A000000209A424041704710B5FFF7C3FFC046FF
:103A100070B5FDF76FFB074D074EB54209D2002484
:103A2000013E761BB60808CD984723000134B34207
:103A3000F9D170BD243101102C310110030010B5F3
:103A4000080011001B68984710BDC046F0B5C64677
:103A500000B5437D07000C001600002B46D0002A5D
:103A600017DD0B780A2B24D000239846012E13D0A3
:103A700001252900635C01350A2B26D0B542F8D117
:103A8000464509DCA419013C23780D3B5A425341B9
:103A90003B7580BCB846F0BD4346E018A419F11A46
:103AA000013C3B68984723780D3B5A4253413B7594
:103AB000EFE7037D002BD7D102210F483B689847E1
:103AC000012EDFD001239846D2E7631E5B5C0D2BED
:103AD000D4D0884504DA4346C91AE0183B689847B1
:103AE000022105483B68A8469847C7E703681100CC
:103AF00020009847CDE7C046B0350110F0B5C64666
:103B00000B6806000C0000B5802B06D05A1C226002
:103B1000E418267180BCB846F0BD0F4B1D68002D1F
:103B200016D00B1D98460D4F02E02D69002D0FD0C9
:103B30002B68002BF9D03B68002B01D0AB42F4D1AD
:103B4000280041462268FFF781FF2D69002DEFD143
:103B500001220023DBE7C04694130020A0130020BD
:103B6000F0B54546DE464E465746E0B583B0914631
:103B70001C0080460D00FDF7D3F80023304A1218D0
:103B80004B41002B02DA01222E4B52422E490800F3
:103B90008A460FF091FA07006B1C03D140460CF0E7
:103BA00077F90500002C27D0284E294B1C68002CE3
:103BB00018D04B46002B21D1264B994602E02469B0
:103BC000002C0FD02368002BF9D04B461B68002B2C
:103BD00001D09C42F3D120002A004146B04724691D
:103BE000002CEFD1002F26D1280003B0F0BCBB463B
:103BF000B246A946A046F0BD174ED6E7154B9946EA
:103C00000A239B4602E02469002CEBD02368002B9A
:103C1000F9D04B461B68002B01D0A342F3D12A00F8
:103C200041462000B0476B465A462000DA71D91D44
:103C30000122B047E7E750460FF00EFAD4E7C0463E
:103C400040420F00FFFFFF7F680B00204D3A00103D
:103C500094130020A01300203D3A0010084B10B52B
:103C60001C68002C06D06368002B04D09847246998
:103C7000002CF8D110BD2469002CF4D1FAE7C0461D
:103C800094130020F0B54746CE461A4B80B51A680B
:103C90005B689146984683B0174F184D01AE3C685B
:103CA000002C03D115E02469002C12D02B68002BC6
:103CB00001D09C42F7D1A368002BF4D00121300041
:103CC00098470028EFDD307803B0C0BCB946B04655
:103CD000F0BD0B4B5A6A904507D89B6A4B4502D3FF
:103CE00002204042F0E79045FAD101200021FDF783
:103CF00021F8D4E76833011094130020A0130020AA
:103D000000400540F0B5CE46474680B583B06B46CF
:103D10000600DD1D2870FDF703F80023194A12186C
:103D20004B41002B02DA0122174B5242174908007F
:103D300088460FF0C1F9164B81461C68002C14D040
:103D4000144F02E02469002C0FD02368002BF9D017
:103D50003B68002B01D09C42F4D1200001222900B5
:103D6000FFF774FE2469002CEFD14B46002B05D1E0
:103D7000300003B0C0BCB946B046F0BD40460FF0BD
:103D80006BF9F5E740420F00FFFFFF7F680B002053
:103D900094130020A013002070B504000CF078F8F4
:103DA00001230100050001222000FFF7D9FE084B86
:103DB0001C68002C06D06368002B05D09847246946
:103DC000002CF8D1280070BD2469002CF3D1F9E74C
:103DD00094130020F0B5CE46474680B5A3B004004A
:103DE0000D00FCF79DFF0023274A12184B41002BC2
:103DF00002DA0122254B5242254E30000FF05CF9C9
:103E000000232200019307002B00224801A9FFF79D
:103E100097FD214B804699461C68019B002B1AD0C8
:103E2000002C2FD01D4D02E02469002C0FD02368F8
:103E3000002BF9D02B68002B01D0A342F4D1200035
:103E4000019A02A9FFF702FE2469002CEFD14B462C
:103E50001C6800230193002C06D06368002B0BD054
:103E600098472469002CF8D1002F07D1404623B091
:103E7000C0BCB946B046F0BD2469ECE730000FF095
:103E8000EBF8F3E70194EFE740420F00FFFFFF7FFD
:103E9000680B0020FD3A001094130020A0130020AE
:103EA0000FB400B583B004A901C90191FFF792FFD7
:103EB00003B008BC04B01847F0B54E468146474AE7
:103EC000DE464A44531E9A418023574645465B02CC
:103ED0009C46E0B5424B1204624485B01A60414BE7
:103EE0000C0041491A6010000B689843FBD18046D2
:103EF0000620FDF751F84B465A6802231A400192FA
:103F00004A460090802004320292384AE70D4A4423
:103F10006602136093463B0032000225400007E032
:103F20000099914206D3023592197B41854201D016
:103F3000002BF5D0434680260393009B2F02AA4610
:103F400098467F1B760003E05346FF1A012E3FD0B0
:103F5000390040463500013EFDF7CCF98442F3D2EA
:103F60002B0055469A4650463302984668434B46C6
:103F700042461D611B6880265340FF2276011202D3
:103F800013404E44336080239B019C46029A019B60
:103F90006244136002215C464B465B6821604C46DC
:103FA000276807246740C8343C40346003240B4032
:103FB00013600F4B4B441C60116001000098FDF72B
:103FC00099F905B0F0BCBB46B246A946A046F0BD83
:103FD0005546039B28009846C9E7C0460040FCBFF1
:103FE00000E0004000F0004008C000400430000045
:103FF00024200000F0B557464E464546DE46814631
:10400000E0B5062083B00D00FCF7C6FF4B465A68AA
:1040100002231A400192042280214A449246224AF5
:10402000EF0D4A446E021360804632003B000224CA
:10403000490006E0904506D3023492197B418C4238
:1040400001D0002BF6D0802627023F1B760002E02D
:104050003F1B012E24D039004046B346013EFDF7F8
:1040600049F9A842F4D95946614336024B461C61CE
:104070001A68FF2372401B021A4080235B014B44E5
:104080001A608023019A9B01534440461A60FDF751
:1040900031F903B0F0BCBB46B246A946A046F0BD1C
:1040A00021000026E2E7C04604300000074B70B54F
:1040B0009C4684684D68644420000FF00DF82D691B
:1040C00020000EF0C9FF280070BDC0466C10000033
:1040D000074B70B59C4684684D68644420000EF020
:1040E000FBFFAD6B20000EF0B7FF280070BDC0468F
:1040F0006C100000F0B516009022C9B04C688568BD
:10410000002152006846FDF7BFFF194B6F469C46E1
:10411000654428000EF0E0FF2000694606F098F99B
:10412000040028000EF098FF002C16D1BB7E002B57
:104130001AD010233A7B1A2113405A4253419B0054
:1041400004333370FF22701C69440BF04FF9802355
:1041500000205B00F45449B0F0BD6042132CFAD843
:10416000044BA400E058F6E702204042F3E7C046C3
:104170006C100000C83501100C4B70B59C4685686A
:104180004E68654428000EF0A7FF300006F046F99F
:10419000040028000EF060FF3000FDF769FF604268
:1041A000132C02D8024BA400E05870BD6C10000024
:1041B000C83501104B68F0B5C64698461A4B85685D
:1041C0009C466544280000B514000EF085FF434668
:1041D00022009E6BDF6B4046E31705F0DFFE041EF6
:1041E00013D1404606F0B0F9041E0ED132003B0058
:1041F000404605F0D3FE040028000EF02DFF0020FD
:10420000002C0CD180BCB846F0BD28000EF024FF75
:104210006042132CF6D8054BA400E058F2E7604248
:10422000132CEFD8F7E7C0466C100000C83501101A
:104230000E4B70B59C4686684C68664430000D0095
:104240000EF04AFF200005F089FE040030000EF059
:1042500003FF6868FDF70CFF002360426B60132CBE
:1042600002D8034BA400E05870BDC0466C1000009B
:10427000C83501108368F0B51A00DE464E46574631
:1042800045469446E0B58BB003934D4B834663445B
:1042900018000E0002930EF01FFF3423F35C002B76
:1042A00004D1300033689847041E6CD1736A002231
:1042B0005B0000939846002301933000002371694E
:1042C0008847041E5FD1B76A3800FDF799FE814622
:1042D000002800D16DE03A00FF21FDF7D5FE002354
:1042E0009A46434600254C46002B03D118E0ED19B1
:1042F000A84514D953460097019333692A0099467B
:10430000210000233000C8470028F0D0A146040057
:104310004846FDF7ADFE02980EF09EFE36E0A1463F
:104320004846FDF7A5FEF3693000B46998470022BE
:104330000090019100233000A047041E23D15B466A
:10434000012231005846DB689847041E1BD10F2319
:1043500006A90B801B4B48608860C8601A8805A8B6
:1043600002809B788370039A174BD3580022303316
:10437000037080235B0106F061FC5B46051E1B6930
:1043800058460BD1984702980EF066FE20000BB0FD
:10439000F0BCBB46B246A946A046F0BD984702987D
:1043A0000EF05AFE6C42132DF0D8084BAD00EC58BD
:1043B000ECE70C2402980EF04FFE6442E6E7C0469C
:1043C00074100000D431011068100000C8350110CD
:1043D000F0B5134B856883B0EE1830000EF07CFE0C
:1043E000104B01A91A88104F0A809B7800228B700D
:1043F000EB59002030330B7004F064FF00210400FF
:10440000EA590A4B30009200D1500EF025FE60426E
:10441000132C02D8064BA400E05803B0F0BDC046F0
:104420006C100000D431011068100000100C002046
:10443000C8350110F0B5224B856883B0EC18200018
:104440000F0016000EF048FE0322002101A8FDF720
:104450001BFE1C4B186800280FD05A68002A28D071
:104460009A68002A27D0DA68002A26D020000EF0A9
:10447000F3FD0C20404203B0F0BD00221249280099
:104480006A5091005F506B4630321A713A236A4687
:104490005371012201A9724004F014FF05002000AD
:1044A0000EF0DAFD6842132DE5D8084BAD00E85850
:1044B000E1E70122E2E70222E0E70332DEE7C0465D
:1044C0006C100000100C002068100000C8350110AE
:1044D000F0B51E00154B14009C4685684F68654476
:1044E00083B028000EF0F8FD21003200380001AB47
:1044F00005F05EFA041E0BD1380005F0D3FB040072
:1045000028000EF0A9FD002C0CD1019803B0F0BDDD
:1045100028000EF0A1FD6042132CF7D8044BA40034
:10452000E058F3E76042132CF0D8F7E76C10000076
:10453000C8350110F0B51E000F4B15009C4684686D
:104540004F68644483B020000EF0C6FD290032009D
:10455000380001AB05F0EAF8050020000EF07CFD04
:10456000002D02D1019803B0F0BD6842132DFAD896
:10457000024BAD00E858F6E76C100000C83501109A
:104580000B4B70B59C4685684C68654428000EF05E
:10459000A3FD200005F086FB040028000EF05CFD62
:1045A000132C03D8034BA400E05870BD6042FCE715
:1045B0006C100000C8350110F8B51E00134B85685B
:1045C0009C466544280014004F680EF085FD022EBD
:1045D00011D0012E0CD02200E317380005F0DEFCCC
:1045E000040028000EF038FD002C07D1B86BF8BD90
:1045F000BB6BE418EFE73B69E418ECE76042132C6F
:10460000F5D8034BA400E058F1E7C0466C10000059
:10461000C8350110F0B5C64600B50F0003241100DF
:10462000C0B09A0702D4023C1C4001349A0503D55D
:104630005A0531D5082214431B0701D530231C43EA
:104640008668224BE846F358002B28D06A46303360
:1046500013703A23901C53700BF012FC832101203D
:104660004901FDF7DFFC051E786023D0184B9C46FE
:10467000664430000EF030FD22004146280004F070
:104680005FFE040030000EF0E7FC0020002C0AD191
:1046900040B080BCB846F0BD10221443CCE7684659
:1046A0000BF0EEFBDAE76042132CF1D8094BA400C3
:1046B000E058EDE7084B19221B6801210748DB6829
:1046C0000AF04AFD0C204042E2E7C04668100000B4
:1046D0006C100000C835011068080020D8310110A6
:1046E00030B5144B8568C1B0EB586C46002B1AD01E
:1046F000303323703A23A01C63700BF0C1FB0E4BC8
:104700009C46654428000EF0E7FC200005F0A4FF5D
:10471000040028000EF0A0FC132C08D8074BA400BE
:10472000E05841B030BD68460BF0AAFBE7E76042B5
:10473000F7E7C046681000006C100000C835011093
:1047400030B5144B8568C1B0EB586C46002B1AD0BD
:10475000303323703A23A01C63700BF091FB0E4B97
:104760009C46654428000EF0B7FC200006F002F8D5
:10477000040028000EF070FC132C08D8074BA4008E
:10478000E05841B030BD68460BF07AFBE7E7604285
:10479000F7E7C046681000006C100000C835011033
:1047A00030B5174B8568C1B0EB586C46002B1AD05A
:1047B000303323703A23A01C63700BF061FB114B64
:1047C0009C46654428000EF087FC200005F044FF5D
:1047D000040028000EF040FC002C08D10A4BA40075
:1047E000E05841B030BD68460BF04AFBE7E7072CC4
:1047F00003D06042132CF4D8F0E75A204042F0E78F
:10480000681000006C100000C8350110F0B5224C93
:10481000224BA54484681500E3586E46002B2BD02C
:10482000303333703A23B01C73700BF029FB1B4BF1
:1048300040AFE358002B27D030333B703A237B70D6
:104840006B46D81C2900FF300BF01AFB144BE518FF
:1048500028000EF041FC3900300006F0BBF80400DF
:1048600028000EF0F9FB132C13D80E4BA400E058CF
:1048700081239B009D44F0BD68460BF001FB074B74
:1048800040AFE358002BD7D1290038000BF0F8FADD
:10489000DCE76042ECE7C046FCFDFFFF681000006B
:1048A0006C100000C8350110F0B5234B8568C1B00D
:1048B000EB580F006E461100002B23D030333370BD
:1048C0003A23B01C73700BF0DBFA58210120FDF77E
:1048D000A9FB041E24D0194B9C46654428000EF009
:1048E000FBFB3100200005F02FFD060028000EF034
:1048F000B3FB002E0AD1012300205B427C603B60A9
:1049000041B0F0BD68460BF0BBFADEE72000FDF7D2
:10491000AFFB7042132EF3D8094BB600F058EFE707
:10492000084B18221B6801210748DB680AF014FCB9
:104930000C204042E4E7C046681000006C10000004
:10494000C835011068080020F431011070B5244CFE
:10495000244BA54484681600E3586D46002B3AD0DA
:1049600030332B703A23A81C6B700BF089FA90221D
:104970000021520040A8FDF787FB1B4B9C46644476
:1049800020000EF0A9FB280040A905F0A7FD0500B6
:1049900020000EF061FB002D16D1409B8622336172
:1049A0006B4652009B181B78DA060AD40F49104A4E
:1049B000DB0700D50A000020726088239B009D441D
:1049C00070BD0C490C4AF3E76842132DF5D80B4B28
:1049D000AD00E858F1E768460BF052FAC7E7C04669
:1049E000E0FDFFFF681000006C1000006D8100000A
:1049F000FF8100006D410000FF410000C83501103B
:104A0000034B8000C05810B503689847C0B210BD72
:104A1000100C00200020704770B50E001049800077
:104A200045588021686A82B0041C80B2890088429F
:104A300000D20C1CA4B220000021FDF77FFA0B006D
:104A4000069902004C430021009401912800310096
:104A5000EC68A047431E9841800002B070BDC0467C
:104A6000100C0020F0B54F464646D64688461A49F7
:104A7000C0B586008F59894680217D6A82B02C1C82
:104A8000ADB289008D4200D20C1CA4B220000021DE
:104A9000FDF754FA0A9B82465C4300230D00019304
:104AA00000942B005246380079698847031E11D1C3
:104AB0004A469059019300942B005246414604699E
:104AC000A047431E9841800002B0E0BCBA46B14600
:104AD000A846F0BD0420F7E7100C0020F0B5CE4644
:104AE000474680B5140083B0042966D8344B89004A
:104AF0005B589F460123136000202AE0314B800061
:104B0000C658002E57D0136880229946736A9200C7
:104B10001D1C9BB2934200D2151CADB22A0000238B
:104B200048460021FDF70AFA4B46804660680F00B0
:104B300001302A00C01A00210023FDF7FFF9009080
:104B400001913B0042463000B1698847431E9841BD
:104B5000800003B0C0BCB946B046F0BD194D860018
:104B60007059002827D0C3699847735980255B6A1C
:104B7000AD001A1C9BB2AB4200D22A1C002392B299
:104B8000FCF7F6FB20600020E3E70E4B8000C358E3
:104B9000002B10D080215B6A890013809BB21A1C05
:104BA0008B4200D20A1C00202280D2E7054B8000F5
:104BB000C358002BA0D10320CBE70420C9E7C0468F
:104BC000B4350110100C002000B583B068460AF01F
:104BD00057FD68460AF038FC0300C0689A68000474
:104BE000D20210435A68196852011043CA0F521872
:104BF000521010435A691B69503A52060133104350
:104C00005B05184303B000BD70B55C210120FDF7C2
:104C100009FA041E3FD02B4B842143602A4B4901E3
:104C2000C3602A4B03612A4B43612A4B83612A4BA1
:104C3000C3612A4B03622A4B43622A4B83622A4B8D
:104C4000C3622A4B03632A4B43632A4B83632A4B79
:104C5000C3632A4B03642A4B43642A4B83642A4B65
:104C6000C3642A4B03652A4B43652A4B83650120A5
:104C7000FDF7D8F9051E18D00122274B5242C25029
:104C8000264BC018FBF7A2FC254BE818FBF79EFC4F
:104C9000A560200070BD234B25221B6801212248FE
:104CA000DB680AF059FA0024F3E71E4B25221B6843
:104CB0000121DB681C480AF04FFA2000FDF7D8F903
:104CC0000024E6E71836011035440010D1430010E7
:104CD00075420010A14700100D4800104147001018
:104CE000E14600104D4900101546001031420010F9
:104CF000D14400103545001081450010B945001021
:104D0000D1400010AD400010B5410010A94800107E
:104D100079410010F5400010681000006C10000090
:104D200074100000680800201032011010B5040053
:104D30008068FDF79DF92000FDF79AF910BDC04687
:104D4000F0B54546DE4657464E46E0B50379804607
:104D50000C0089B0002B00D094E06833434499469E
:104D600043461B6BA21E023B9A4200D367E04346B8
:104D7000002158890023FDF7E1F843461C6D5D6D65
:104D800024184D414346802200211C665D66520175
:104D90004846FDF779F94246434692898021100042
:104DA0005B89090258430E00884200D20600B242D5
:104DB00003D349E076089E4244D9300007F048FE0C
:104DC000434683469B890028F4D09E423AD932005C
:104DD0000021FDF759F9434630009989FCF78AFA1A
:104DE000434600225B8981469246002B05D115E09F
:104DF00043465B89CA449A4510D253460293002326
:104E00004146039348784946029A039B0091121940
:104E10006B415946FFF726FE0028E9D0584607F0B7
:104E20001BFE43465B895246D01A431E9841C0B2CE
:104E300009B0F0BCBB46B246A946A046F0BD00246E
:104E400000259FE743465B89002292460132934644
:104E500001260027002B07D1E5E701229446E24412
:104E6000A4197D419A45DED2434658785B4622001C
:104E7000009349462B00FFF7F5FD43465B89002868
:104E8000EBD0D0E7682343449946026E436E012578
:104E9000407849460095FFF7E5FD03000120002B0F
:104EA000C6D142461371536E126E0692079306984E
:104EB000079943465B6B04930023059343461A6CA2
:104EC0005B6C801A994102000B0004980599994285
:104ED00000D045E7904200D842E74346DB78022BFA
:104EE00000D03DE704980599069A079B12184B419C
:104EF0004146487849460095FFF7B4FD30E7C04683
:104F0000342310B5C25C0133C35C1B021343362249
:104F1000825C12041A433723C35C1B0613433922F5
:104F20008B603823825CC35C12021A433A23C35C51
:104F30001B0413433B22825C12061A433C23C45CCD
:104F40000133C35C1B0223433E24045D24041C4341
:104F50003F23C35C0A611B0623434B612123C25CD0
:104F60001F3B1340CB710023CB6110BDF8B5036824
:104F70004E464546DE46574699460023E0B58B76B9
:104F8000836BC26B80460C00134300D1BEE04B46DE
:104F90001B78042B00D1EEE0036D013300D1E1E07A
:104FA0004B468022196912010B8802270025924680
:104FB000002B15D0A02292019A1892B2524500D22D
:104FC000BEE00020E921FF26000418438900761B7B
:104FD00007F046FDFF2800D8BAE0012E00D99BE07B
:104FE000002500236519AB7643461B6CA07E1A781A
:104FF000202A00D1BDE0052A00D1E03201216273F0
:105000005D780A00202D05D0052D00D1E0354A1C21
:1050100061184D739D781100202D05D0052D00D10C
:10502000E035511CA2185573DD780A00202D05D0FB
:10503000052D00D1E0354A1C61184D731D79110012
:10504000202D05D0052D00D1E035511CA218557337
:105050005D790A00202D05D0052D00D1E0354A1CD0
:1050600061184D739D791100202D05D0052D00D1BB
:10507000E035511CA2185573DD790A00202D05D0AA
:10508000052D00D1E0354A1C61184D731D7A202D85
:1050900009D0052D00D1E0352E27511CA618611826
:1050A000777302324D735D7A202D00D11BE1052DFF
:1050B00000D1E035511CA21855739D7A202D00D1E6
:1050C000E2E0052D00D1E03562180021557391739F
:1050D000002800D1DEE03F22D97A0A4022735A7FAD
:1050E000197F12020A43997F09041143DA7F1206DD
:1050F0000A43226000226260DA7D997D12020A432F
:1051000062811A7E5B7E1B0213432381F0BCBB4687
:10511000B246A946A046F8BD6319020A9A76D87627
:105120000223ED184B461969CB5B0237002B00D1E7
:1051300057E7A02292019A1892B2524500D340E755
:10514000CA5B0237002A00D14AE71800130039E78A
:10515000002800D144E7002E00D141E7631998767A
:105160000123DEE743461B6C00201A78202A00D07A
:1051700041E7002144E74B46232259698A5C0B0032
:10518000002A2DD01F239A46E03300270020002656
:1051900040259B4653462B4200D102354B195B7884
:1051A0004A5D1B02134302350137002808D18022D3
:1051B00012019446A02292019A1892B262455BD3E2
:1051C0005A46E9210004921B18438900904607F0D3
:1051D00047FCFF283AD94346012B4FD84B465B6921
:1051E0003F220126A27600223721A619B2766273E9
:1051F0001A7911402173D2067AD439213822595CA8
:105200009A5C090211433A229A5C12040A433B2138
:10521000595C090611433C22985C01329A5C1202E7
:1052200002433E20185C000410433F229A5C1206A1
:105230000243216062605A7B197B12020A43628139
:105240009A7BDB7B1B02134323815FE70028C5D0D9
:105250004346002BC2D0A31998760123F6184B467B
:105260000020596923228A5C0B00BA4251D9982246
:10527000920095428ED3B3E71800F3E7A319020A10
:105280009A76D8760223E9E7621800215173002844
:1052900000D020E72100627B08250E31002A0FD1C3
:1052A00035E010004138192804D8187B284201D075
:1052B0002032D2B20A730A78481C002A08D00100B2
:1052C0002E2AEED10A730A781025481C002AF6D13E
:1052D000091B0D39002261188A761A7B002A00D03A
:1052E000F9E66273F7E69D7A202D04D01100E8E616
:1052F000002100229DE70025A1184D73002800D051
:10530000E9E6002AC6D13F220121A276E2E7002188
:10531000E0E7002800D063E7002E00D063E75FE7F6
:10532000F0B5CE46474680B51500026E1E0004005B
:10533000436E87B0AA4207D10020B34204D107B020
:10534000C0BCB946B046F0BD270021796837B946E0
:10535000002910D1012360782A00009349463300C8
:10536000FFF75AFB002803D001256D4201202E00D3
:1053700025666666E3E7012160788846009139007A
:10538000FFF770FB03000120002BD8D12371226EA0
:10539000636E1900636B1000029300230490059163
:1053A0000393226C636C801A994102000B000298EF
:1053B00003999942CED19042CCD9E378022BC9D13E
:1053C00002980399049A059B12184B414146607854
:1053D00000914946FFF746FBBCE7C046F0B546469C
:1053E000D6464F46C0B50678040088461500022E02
:1053F0004BD019D8012E00D067E04B084344818977
:1054000018009A46FBF776FF226C636C0021121895
:105410004B412000FFF784FF002858D00120E0BC5A
:10542000BA46B146A846F0BD033E012E4DD881894B
:1054300040468908FBF75EFF226C636C060000277C
:10544000200092197B41FFF76BFF0028E6D143460D
:10545000A1899800FBF74EFF2378042B07D06B221D
:1054600060182B01855C1B092D092D071D432300A6
:10547000683359182B0A4B702B0C8B7001230D705D
:105480002D0ECD7000202371C9E78189404649085F
:10549000FBF730FF226C636C060000272000921996
:1054A0007B41FFF73DFF0028B8D14346A189580052
:1054B0002600FBF71FFF0123683671180D70ADB28F
:1054C0002D0A4D7000202371A9E70220A7E70123D0
:1054D000270053445046A1899946FBF70BFF4246EB
:1054E00068377918EBB216421DD00F2208781B01DD
:1054F000024013430B70A18948462671FBF7FAFE60
:10550000226C636C002112184B412000FFF708FF4A
:10551000002800D082E74846A189FBF7EBFE2B0963
:105520007A18DBB21BE00B70A18948462671FBF7A5
:10553000E1FE226C636C002112184B412000FFF742
:10554000EFFE002800D069E74846A189FBF7D2FEAC
:105550007B5C7A180F212D0A8B4329400B43137073
:105560000123002023715AE7F0B5D6464F46464640
:105570000C000125C0B501292BD9036898461B6B87
:105580008B4226D943461B78032B00D176E026D8E0
:10559000012B5CD0022B1CD143469989200049087D
:1055A000FBF7A8FE00270600434640461A6C5B6CDA
:1055B00092197B41FFF7B4FE00285CD1434660009E
:1055C0009989FBF797FE414468314D780B782D029D
:1055D0001D432800E0BCBA46B146A846F0BD042BE6
:1055E000F7D1066947693200C3793A436FD1012583
:1055F000002BEED143469A89C369002B00D0AEE060
:1056000091082000FBF776FE00270600434640463F
:105610001A6C5B6C92197B41FFF782FE00282AD13D
:105620004346A0009989FBF765FE6922682341443F
:105630008A5CCB5C12021A436A23CB5C1B041343C3
:105640006B228D5C2D061D436D006D08C1E74B0874
:1056500099464346894448469989FBF74BFE002703
:105660000600434640461A6C5B6C92197B41FFF77B
:1056700057FE002847D001256D42AAE74346998985
:1056800020008908FBF736FE002706004346404607
:105690001A6C5B6C92197B41FFF742FE0028EAD13D
:1056A0004346A0009989FBF725FE692268234144FF
:1056B0008A5CCB5C12021A436A23CB5C1B04134343
:1056C0006B228D5C2D061D432D012D0981E782681B
:1056D000002A8CD08A1A914642469289022B40D1E8
:1056E00001204042C117002380197941FBF740FE99
:1056F00043465A890023FBF73BFE814500D968E702
:105700002DD0651C65E701234B449A4643469E898C
:1057100048463100FBF7EEFD414468310B785046B6
:1057200031009946FBF7E6FD002706004346404658
:105730001A6C5B6C92197B41FFF7F2FD00289AD13D
:10574000434650469989FBF7D5FD4A4641446831A6
:105750000B781B02134325420CD01D0939E7074D76
:1057600037E7032B00D047E783694B4500D843E771
:10577000651C2EE71B051D0D2BE7C046FFFFFF7FB5
:10578000F0B5CE46474680B50379040085B0002BBE
:105790000FD12378032B3FD0002200216078FFF740
:1057A0009DF9431E9841C0B205B0C0BCB946B04691
:1057B000F0BD68239846026E436E012180448946FD
:1057C000407800914146FFF74DF903000120002B7E
:1057D000EAD1266E676E206C616C2371636B3200B8
:1057E0000293002303933B00121A8B41100019000F
:1057F000029A039B8B42CCD18242CAD9E17802291A
:10580000C7D1029A039B4946607892197B41009167
:105810004146FFF727F9BCE76579012DBCD1260089
:1058200080226836002152013000FCF72DFC0F4B1E
:105830000F4A0120E2520F4B0F4AA36693239B00AD
:10584000E250E1690433A269E15000210433E250DF
:10585000A26BE36B12184B416078226663663100DD
:105860000095FFF7FFF80023637195E766020000DB
:1058700055AAFFFF525261417272416170B51E001C
:10588000002382B01500037101225242D317040095
:10589000026643666B1C15D1731C13D1584A584BD2
:1058A000A2185578E35C2D021D43564B9D4249D00A
:1058B0006823E35CEB2B18D01833DBB2012B14D92F
:1058C000032010E00123210060782A000093683152
:1058D0003300FFF7A1F8002846D001225242D31727
:1058E00004202266636602B070BD7323E25C23006D
:1058F00073335B781B0213435A1E1342E0D1424AB2
:1059000003209446E02263449BB212019342EAD8FA
:105910007523E35C002BE6D05A1E1342E3D17623B5
:10592000E25C230076335B781B02134304D07823B8
:10593000E35C013B012B38D9344BE818431E9841F6
:105940000230D0E720000B223149683009F014FC06
:1059500000280CD06823E35CEB2B0AD01833DBB2B1
:10596000012B06D90220BEE72566666696E7012070
:10597000B9E7200008222749BA3009F0FDFB0028CA
:105980003BD07323E25C230073335B7802201B025D
:1059900013435A1E1342A6D11B4A9446E022634485
:1059A0009BB212019342B3D99DE77923E25C2300B5
:1059B00079335B781B021343BED07B23E25C230068
:1059C0007B335B781B0213437F2B0FD88823E118AE
:1059D000E25C4B781B0213438A7812041A43CB789B
:1059E0001B061343802252029342A5D37E23E25C1E
:1059F0007E3463781B0213439ED0002073E7C046B9
:105A00006602000055AA000000FEFFFFAB55FFFF35
:105A10003832011044320110F0B54546DE46574693
:105A20004E460023E0B5050000688DB00B600028ED
:105A300000D154E3040001E03A2B46D0237801342E
:105A40001F2BF9D8CA4B1B78CA489B001C58002C46
:105A500000D134E101262378B24315000C60002BFD
:105A600012D06078FEF7D6FF06420DD1002D02D08D
:105A7000400700D521E1002630000DB0F0BCBB4648
:105A8000B246A946A046F0BD002360782370FEF719
:105A9000B7FFC30726D4002D02D0400700D50CE184
:105AA0002200022160780C32FFF718F800280AD192
:105AB000E021A289B04B0901D3189BB28B4202D8D6
:105AC000531E1A4210D00126D6E703780B26303B2E
:105AD000DFB2092FD0D802308442CDD1032BCBDCEA
